:100000000C9434000C9446000C9446000C9446006A
:100010000C9446000C9446000C9446000C94460048
:100020000C9446000C9446000C9446000C94460038
:100030000C9446000C9446000C9446000C94460028
:100040000C9446000C9446000C9446000C94460018
:100050000C9446000C9446000C9446000C94460008
:100060000C9446000C94460011241FBECFEFD8E03C
:10007000DEBFCDBF21E0A0E0B1E001C01D92A03104
:10008000B207E1F70E944D010C946C010C94000042
:100090008CE38AB980E284B980EF84B9089583B192
:1000A00083B180FD19C0109201011092000181FD01
:1000B0001BC0109207011092060182FD1DC0109214
:1000C00009011092080183FF1FC081E090E0909326
:1000D0000F0180930E01089521E030E0309301017B
:1000E0002093000181FFE5CF21E030E0309307014C
:1000F0002093060182FFE3CF21E030E03093090135
:100100002093080183FDE1CF10920F0110920E01A0
:1001100008952D9A2FEF83ED90E321508040904079
:10012000E1F700C0000015B82FEF83ED90E32150F8
:1001300080409040E1F700C0000008956091060102
:10014000709107016115710589F140910801509185
:10015000090180910E0190910F014115510519F08F
:10016000009709F488C010920D0110920C014115FE
:10017000510509F450C020E0009769F138E0E1E052
:10018000F0E0F0930301E0930201672B69F1452B46
:1001900009F479C010920B0110920A01892B09F41D
:1001A00065C050E040E080E090E02BC080910E01FF
:1001B00090910F01009709F047C021E030E03093A3
:1001C0000D0120930C01409108015091090124E098
:1001D0004115510589F630E0E0E0F0E0F0930301CD
:1001E000E0930201672B99F6009719F0CA01009776
:1001F00011F541E050E050930B0140930A0140E0BB
:1002000050E19093050180930401852F842B832B6B
:10021000282B2BB9089521E030E03093030120937F
:100220000201892BD9F020E038E010920B011092E6
:100230000A0150E0B7CF10920B0110920A0180E042
:1002400090E040E050E0DDCF40910801509109017D
:1002500010920D0110920C0120E0BACF30930B01E7
:1002600020930A0120E038E050E19CCF40E250E0CA
:1002700081E090E0C6CF21E030E030930D01209383
:100280000C0124E079CF892B81F681E090E09093F6
:100290000B0180930A0150E185CF8CE38AB980E29B
:1002A00084B980EF84B90E944F000E949E002D9A6D
:1002B0002FEF83ED90E3215080409040E1F700C0A4
:1002C000000015B82FEF83ED90E32150804090405F
:0C02D000E1F700C00000E7CFF894FFCF7A
:00000001FF
